S00D000050726F6A322E737265634A
S11300000C9434000C9449000C9449000C9449005D
S11300100C9449000C9449000C9449000C94490038
S11300200C9449000C9449000C9449000C94490028
S11300300C9449000C9449000C9449000C94490018
S11300400C9449000C9449000C9449000C94490008
S11300500C9449000C9449000C9449000C944900F8
S11300600C9449000C94490011241FBECFEFD8E032
S1130070DEBFCDBF11E0A0E0B1E0E8E4F2E002C0F1
S113008005900D92A432B107D9F70E948B000C940D
S113009022010C94000087E690E00E94000108957C
S11300A08EEF0E940B0181E00E940B010895CB01A9
S11300B00E94130108958EEF0E940B018DE00E94AF
S11300C00B010895CF93DF936115710551F0EB0196
S11300D08EEF0E940B018CE10E940B012197209767
S11300E0B9F7DF91CF910895CF93DF93C62FD42F23
S11300F08EEF0E940B01C13029F48FE78D0F0E940F
S11301000B0106C0C23021F48FEB8D0F0E940B014E
S1130110DF91CF910895CF93DF931F92CDB7DEB7D0
S1130120CE0101960E944B00CE0101960E94500020
S113013060E071E0CE0101960E9457002FEF87EA3C
S113014091E6215080409040E1F700C00000CE01CC
S113015001960E945B002FEF83ED90E321508040D5
S11301609040E1F700C00000CE0101960E945000CB
S113017066E071E0CE0101960E9457002FEF83EDF7
S113018090E3215080409040E1F700C0000063E01C
S113019070E0CE0101960E9462002FEF83ED90E3A0
S11301A0215080409040E1F700C00000CE0101964C
S11301B00E94500065E171E0CE0101960E94570053
S11301C02FEF83ED90E3215080409040E1F700C091
S11301D0000043E050E062E0CE0101960E9474000A
S11301E06FE171E0CE0101960E9457002FEF83ED7D
S11301F090E3215080409040E1F700C0000098CF88
S11302009093C5008093C40088E18093C1008EE080
S11302108093C2000895E0ECF0E0908195FFFDCF5B
S11302208093C6000895CF93DF93EC0188818823DF
S113023031F021960E940B0189918111FBCFDF914E
S10B0240CF910895F894FFCF5B
S113024848656C6C6F004D6F76696E6720726967DC
S11302586874203300476F696E6720322C33004876
S107026861690000C4
S9030000FC
