S00D000050726F6A322E737265634A
S11300000C9434000C9451000C9451000C94510045
S11300100C9451000C9451000C9451000C94510018
S11300200C9451000C9451000C9451000C94510008
S11300300C9451000C9451000C94B2030C94510094
S11300400C9451000C9451000C9451000C945100E8
S11300500C9451000C9451000C9451000C945100D8
S11300600C9451000C94510011241FBECFEFD8E022
S1130070DEBFCDBF11E0A0E0B1E0E4E8F4E102C0EE
S113008005900D92AE34B107D9F721E0AEE4B1E0AA
S113009001C01D92A435B207E1F70E9474030C94C9
S11300A0400A0C940000ECE7F0E0808180648083D7
S11300B0EAE7F0E0808187688083089585B58360EE
S11300C085BD82E080936E000895ECE7F0E09081B6
S11300D08770987F982B9083EAE7F0E080818064B2
S11300E08083808186FDFDCF809178009091790096
S11300F0089587B18A7F87B987B18A6087B94198A3
S1130100439A8FE19EE40197F1F700C0000080E07C
S11301100E946500089587B1857F87B987B185609E
S113012087B94098429A8FE19EE40197F1F700C0A5
S1130130000081E00E94650008958F929F92AF9223
S1130140BF92CF92DF92EF92FF920F931F93CF93C0
S1130150DF937B016A01E90160E074E09B01281BE5
S1130160390BC9012E153F0528F04217530718F41F
S1130170CA0101C0C701BC016E197F0980E090E08B
S11301800E9447064B015C01B6016E197F0980E0AD
S113019090E00E9447069B01AC01C501B4010E9496
S11301A0B3056B017C01B8016C1B7D0B80E090E012
S11301B00E9447069B01AC01C701B6010E94D50607
S11301C06B017C01BE0180E090E00E9447069B0128
S11301D0AC01C701B6010E944F050E941B06CB016A
S11301E0DF91CF911F910F91FF90EF90DF90CF900F
S11301F0BF90AF909F908F900895CF93DF93EC01C1
S113020005960E948D042296CE010E94D404CE014C
S11302100E94D904DF91CF910895CF93DF93EC012D
S113022081E090E089939993CE010E94D90460E023
S113023071E0CE010E94E0044AE050E062E0CE01A9
S11302400E94E80466E071E0CE010E94E004DF91C0
S1130250CF9108950F931F93CF93DF938C01EC01FB
S11302602296CE010E94D90444E050E061E0CE0120
S11302700E94E8046EE071E0CE010E94E00444E0D4
S113028050E062E0CE010E94E8046AE171E0CE0130
S11302900E94E0042FEF87EA91E6215080409040CD
S11302A0E1F700C00000C8010E940D01DF91CF9169
S11302B01F910F910895CF93DF93EC0182E090E0BA
S11302C089939993CE010E94D9046DE271E0CE0125
S11302D00E94E00447E050E062E0CE010E94E8049E
S11302E067E271E0CE010E94E0044EE050E061E07C
S11302F0CE010E94E8046CE271E0CE010E94E004A9
S1130300DF91CF910895CF93DF93EC0184E090E0E7
S113031089939993CE010E94D90460E071E0CE01E3
S11303200E94E0044DE050E061E0CE010E94E80448
S113033067E271E0CE010E94E00441E050E062E037
S1130340CE010E94E80460E371E0CE010E94E00463
S113035049E050E062E0CE010E94E80468E371E005
S1130360CE010E94E004DF91CF910895CF93DF93F3
S1130370EC019B01215332402538314030F4CA014D
S1130380815293408539910558F0655671096D3550
S1130390714018F54B5852404B385105F0F411C0D8
S11303A0CE010E948301CE0103960E9430042FEFF8
S11303B089E698E1215080409040E1F700C00000B8
S11303C00CC0CE010E945B012FEF89E698E1215019
S11303D080409040E1F700C00000DF91CF91089584
S11303E0EF92FF920F931F93CF93DF93EC01FB01E6
S11303F09B01255631092D30314030F4CA01815218
S113040093408539910568F0CF0183589109813073
S1130410934008F042C04B5852404B385105E8F520
S113042011C0CE010E940D018FEF99E628E18150A1
S113043090402040E1F700C00000CE0103960E94E6
S113044025042BC000EA10E020E030E046E653E04B
S113045065EA70E0CF010E949D008C01CE010E94EC
S113046083017E0182E0E80EF11C49E050E061E086
S1130470C7010E94E804B801C7010E94E4049FEF89
S113048029E688E1915020408040E1F700C0000057
S1130490B801CE0103960E940904DF91CF911F9108
S11304A00F91FF90EF900895CF93DF93EC0183E0D9
S11304B090E089939993CE010E94D90466E071E09B
S11304C0CE010E94E0044DE050E061E0CE010E94C4
S11304D0E80467E271E0CE010E94E00441E050E0EC
S11304E062E0CE010E94E80460E371E0CE010E9464
S11304F0E00449E050E062E0CE010E94E80461E4D7
S113050071E0CE010E94E004DF91CF910895CF9372
S1130510DF93EC019B01215233402539310530F43E
S1130520CA018152934085399105B8F0CB018556B3
S11305309109833B910530F4CA0181529340853976
S11305409105E0F06159714063307140A0F54B585A
S113055052404B38510578F522C0CE0105960E94D1
S1130560CD04CE010E9454028FEF99E628E1815018
S113057090402040E1F700C000001DC0CE01059668
S11305800E94D104CE010E9454028FEF99E628E123
S1130590815090402040E1F700C000000CC0CE0123
S11305A00E940D018FEF99E628E181509040204090
S11305B0E1F700C00000DF91CF910895EF92FF9220
S11305C00F931F93CF93DF93EC01FB019B012556FF
S11305D031092D30314030F4CA01815293408539BC
S11305E0910570F0CF01835891098130934008F050
S11305F04AC04B5852404B38510508F044C00DC016
S1130600CE010E940D018FEF99E628E181509040C0
S11306102040E1F700C0000036C007E611E020E00A
S113062030E046E653E065EA70E0CF010E949D00A9
S11306308C01CE010E9454027E0182E0E80EF11C7E
S113064049E050E061E0C7010E94E804B801C70135
S11306500E94E4049FEF29E688E191502040804005
S1130660E1F700C0000048E853E1B801CE01059667
S11306700E94A3049FEF23ED80E39150204080402B
S1130680E1F700C00000DF91CF911F910F91FF901F
S1130690EF9008959B0126503109203B334018F513
S11306A09A0126503109203B3340E8F415C00E94DA
S11306B0B60108952230310519F40E948702089585
S11306C02330310519F40E94DE02089524303105E7
S11306D051F40E94F0010895FC0120813181213000
S11306E0310541F7E4CF0895CF93DF93CDB7DEB75B
S11306F029970FB6F894DEBF0FBECDBF789480E57E
S113070091E00E94F603CE0109960E94D40487E684
S113071090E00E94FF040E945E00CE0109960E94B0
S1130720D904CE0101960E94FD00CE0101960E94DB
S11307302A012FEF83EC99E0215080409040E1F7AB
S113074000C0000080E591E00E94FD038C0180E57B
S113075091E00E94F903A801BC01CE0101960E9418
S11307604A03E7CF1F920F920FB60F9211242F93D3
S11307703F934F935F936F937F938F939F93AF9325
S1130780BF93EF93FF9380914E0190914F01843F6B
S1130790914091F40E947900BC0180E591E00E94AF
S11307A001040E948B00BC0180E591E00E940504D5
S11307B010924F0110924E0180914E0190914F0181
S11307C0019690934F0180934E01FF91EF91BF9159
S11307D0AF919F918F917F916F915F914F913F91D5
S11307E02F910F900FBE0F901F9018950E945300E9
S11307F00895FC01808191810895FC018281938197
S11308000895FC01718360830895FC0173836283FE
S11308100895FC01718360838AE491E0689F9001EC
S1130820699F300D789F300D1124AFE0BAEE0E941D
S11308304C07880F892F881F990B919584579F4FD8
S113084090938900809388000895E1E8F0E0808126
S1130850887F8083E0E8F0E080818F708083089552
S1130860219AE0E8F0E02081226A2083E1E8F0E0C8
S113087020812B61208327E833E130938700209384
S11308808600FC01118210828CE890E0909389002C
S11308908093880008955A9816161706ACF420E041
S11308A030E0EFE1FEE43197F1F700C000005C9A1C
S11308B0EFE1FEE43197F1F700C000005C982F5F90
S11308C03F4F2617370769F7FC0120813181620FFA
S11308D0731F7183608308955A9A16161706ACF431
S11308E020E030E0EFE1FEE43197F1F700C00000D2
S11308F05C9AEFE1FEE43197F1F700C000005C98E8
S11309002F5F3F4F2617370769F7FC01208131819C
S1130910261B370B318320830895FC01118210823A
S113092021E022838AB184618AB98BB18B7E8BB931
S11309300895FC012281222319F00E944B0408959A
S11309400E946C040895CF93DF93FC01EA01828135
S1130950882341F020813181261B370B5AF4285912
S11309603E4F08C0808191819B01281B390B12F4F2
S113097028593E4F7183608348EC429FC001439FD6
S1130980900D112468E671E00E943807AE01CF0192
S11309900E949904DF91CF91089521E0FC01228304
S11309A00895FC011282089587E690E00E94FF04F6
S11309B008958EEF0E940A0581E00E940A050895B9
S11309C0CB010E9412050895CB010E9421050895D0
S11309D0CF93DF93C62FD42F8EEF0E940A05C13028
S11309E029F48FE78D0F0E940A0506C0C23021F456
S11309F08FEB8D0F0E940A05DF91CF91089590939C
S1130A00C5008093C40088E18093C1008EE0809388
S1130A10C2000895E0ECF0E0908195FFFDCF809353
S1130A20C6000895CF93DF93EC018881882331F0C9
S1130A3021960E940A0589918111FBCFDF91CF9104
S1130A4008950F931F93CF93DF93CDB7DEB72A9703
S1130A500FB6F894DEBF0FBECDBF9F938F938AE489
S1130A6091E09F938F938E010F5F1F4F1F930F93FE
S1130A700E946F07C8010E9412050F900F900F90FB
S1130A800F900F900F902A960FB6F894DEBF0FBE0A
S1130A90CDBFDF91CF911F910F9108955058BB277F
S1130AA0AA270ED048C139D130F03ED120F031F41C
S1130AB09F3F11F41EF42EC10EF4E095E7FB24C110
S1130AC0E92F4AD180F3BA176207730784079507A1
S1130AD018F071F49EF562C10EF4E0950B2EBA2F56
S1130AE0A02D0B01B90190010C01CA01A001112430
S1130AF0FF27591B99F0593F50F4503E68F11A16DC
S1130B00F040A22F232F342F4427585FF3CF46956C
S1130B1037952795A795F0405395C9F77EF41F168E
S1130B20BA0B620B730B840BBAF09150A1F0FF0F58
S1130B30BB1F661F771F881FC2F70EC0BA0F621F44
S1130B40731F841F48F4879577956795B795F79534
S1130B509E3F08F0B3CF9395880F08F09927EE0FC6
S1130B609795879508950CD0E6C0DED040F0D5D097
S1130B7030F021F45F3F19F0C7C0511110C1CAC051
S1130B80EBD098F39923C9F35523B1F3951B550B77
S1130B90BB27AA2762177307840738F09F5F5F4F4C
S1130BA0220F331F441FAA1FA9F333D00E2E3AF08D
S1130BB0E0E830D091505040E695001CCAF729D0A7
S1130BC0FE2F27D0660F771F881FBB1F26173707F6
S1130BD04807AB07B0E809F0BB0B802DBF01FF2726
S1130BE093585F4F2AF09E3F510568F08DC0D7C0DF
S1130BF05F3FECF3983EDCF3869577956795B79560
S1130C00F7959F5FC9F7880F911D9695879597F97A
S1130C100895E1E0660F771F881FBB1F62177307F3
S1130C208407BA0720F0621B730B840BBA0BEE1F08
S1130C3088F7E095089598D088F09F5790F0B92FE1
S1130C409927B751A0F0D1F0660F771F881F991F1D
S1130C501AF0BA95C9F712C0B13081F09FD0B1E053
S1130C6008959CC0672F782F8827B85F39F0B93F63
S1130C70CCF3869577956795B395D9F73EF490951F
S1130C808095709561957F4F8F4F9F4F0895E8949D
S1130C9009C097FB3EF490958095709561957F4FC0
S1130CA08F4F9F4F9923A9F0F92F96E9BB2793956E
S1130CB0F695879577956795B795F111F8CFFAF47E
S1130CC0BB0F11F460FF1BC06F5F7F4F8F4F9F4FAF
S1130CD016C0882311F096E911C0772321F09EE80D
S1130CE0872F762F05C0662371F096E8862F70E073
S1130CF060E02AF09A95660F771F881FDAF7880F4D
S1130D009695879597F9089597F99F6780E870E01D
S1130D1060E008959FEF80EC089500240A9416166D
S1130D20170618060906089500240A9412161306D5
S1130D30140605060895092E0394000C11F4882363
S1130D4052F0BB0F40F4BF2B11F460FF04C06F5F7F
S1130D507F4F8F4F9F4F089557FD9058440F551F55
S1130D6059F05F3F71F04795880F97FB991F61F029
S1130D709F3F79F087950895121613061406551FA0
S1130D80F2CF4695F1DF08C0161617061806991F0C
S1130D90F1CF86957105610508940895E894BB2701
S1130DA066277727CB0197F908950BD0C4CFB5DF19
S1130DB028F0BADF18F0952309F0A6CFABCF1124A1
S1130DC0EECFCADFA0F3959FD1F3950F50E0551FE6
S1130DD0629FF001729FBB27F00DB11D639FAA278C
S1130DE0F00DB11DAA1F649F6627B00DA11D661FDB
S1130DF0829F2227B00DA11D621F739FB00DA11DFC
S1130E00621F839FA00D611D221F749F3327A00DB5
S1130E10611D231F849F600D211D822F762F6A2F51
S1130E2011249F5750408AF0E1F088234AF0EE0FD6
S1130E30FF1FBB1F661F771F881F91505040A9F7E3
S1130E409E3F510570F060CFAACF5F3FECF3983E10
S1130E50DCF3869577956795B795F795E7959F5F4A
S1130E60C1F7FE2B880F911D9695879597F90895E4
S1130E7097FB072E16F4009407D077FD09D00E9443
S1130E805B0707FC05D03EF4909581959F4F08952C
S1130E90709561957F4F0895A29FB001B39FC001E3
S1130EA0A39F700D811D1124911DB29F700D811D92
S1130EB01124911D0895AA1BBB1B51E107C0AA1F51
S1130EC0BB1FA617B70710F0A61BB70B881F991FE7
S1130ED05A95A9F780959095BC01CD010895AEE08F
S1130EE0B0E0E5E7F7E00C94170A0D891E8986E067
S1130EF08C831A8309838FEF9FE79E838D83AE01D2
S1130F00475E5F4F6F89788DCE0101960E949107ED
S1130F10EF81F885E00FF11F10822E96E4E00C9427
S1130F20330AACE0B0E0E7E9F7E00C94090A7C018D
S1130F306B018A01FC0117821682838181FFBDC186
S1130F40CE0101964C01F7019381F60193FD859141
S1130F5093FF81916F01882309F4ABC1853239F481
S1130F6093FD859193FF81916F01853229F4B70137
S1130F7090E00E947909E7CF512C312C20E02032F7
S1130F80A0F48B3269F030F4803259F0833269F482
S1130F9020612CC08D3239F0803339F4216026C0B1
S1130FA02260246023C0286021C027FD27C030EDC3
S1130FB0380F3A3078F426FF06C0FAE05F9E300D11
S1130FC01124532E13C08AE0389E300D1124332E81
S1130FD020620CC08E3221F426FD6BC1206406C051
S1130FE08C3611F4206802C0883641F4F60193FD72
S1130FF0859193FF81916F018111C1CF982F9F7DBE
S11310009554933028F40C5F1F4FFFE3F9830DC010
S1131010833631F0833771F0833509F05BC022C029
S1131020F801808189830E5F1F4F44244394512C1F
S1131030540115C03801F2E06F0E711CF801A08054
S1131040B18026FF03C0652D70E002C06FEF7FEF13
S1131050C5012C870E946E092C0183012C852F77F2
S1131060222E17C03801F2E06F0E711CF801A08027
S1131070B18026FF03C0652D70E002C06FEF7FEFE3
S1131080C5012C870E9463092C012C852068222E1F
S1131090830123FC1BC0832D90E048165906B0F44D
S11310A0B70180E290E00E9479093A94F4CFF50107
S11310B027FC859127FE81915F01B70190E00E9492
S11310C0790931103A94F1E04F1A5108411451044E
S11310D071F7E5C0843611F0893639F5F80127FF38
S11310E007C060817181828193810C5F1F4F08C0AA
S11310F060817181882777FD8095982F0E5F1F4F3F
S11311002F76B22E97FF09C09095809570956195C2
S11311107F4F8F4F9F4F2068B22E2AE030E0A4010A
S11311200E94AB09A82EA81844C0853729F42F7E45
S1131130B22E2AE030E025C0F22FF97FBF2E8F3681
S1131140C1F018F4883579F0B4C0803719F08837C5
S113115021F0AFC02F2F2061B22EB4FE0DC08B2D15
S11311608460B82E09C024FF0AC09F2F9660B92E50
S113117006C028E030E005C020E130E002C020E1F4
S113118032E0F801B7FE07C06081718182819381EA
S11311900C5F1F4F06C06081718180E090E00E5F9C
S11311A01F4FA4010E94AB09A82EA818FB2DFF779E
S11311B0BF2EB6FE0BC02B2D2E7FA51450F4B4FE0B
S11311C00AC0B2FC08C02B2D2E7E05C07A2C2B2D14
S11311D003C07A2C01C0752C24FF0DC0FE01EA0D5A
S11311E0F11D8081803311F4297E09C022FF06C0DD
S11311F07394739404C0822F867809F0739423FD4A
S113120013C020FF06C05A2C731418F4530C57183B
S1131210732C731468F4B70180E290E02C870E9469
S1131220790973942C85F5CF731410F4371801C021
S1131230312C24FF12C0B70180E390E02C870E9478
S113124079092C8522FF17C021FF03C088E590E0AF
S113125002C088E790E0B7010CC0822F867859F06D
S113126021FD02C080E201C08BE227FD8DE2B701BF
S113127090E00E947909A51438F4B70180E390E066
S11312800E9479095A94F7CFAA94F401EA0DF11D4A
S11312908081B70190E00E947909A110F5CF332035
S11312A009F451CEB70180E290E00E9479093A94A2
S11312B0F6CFF7018681978102C08FEF9FEF2C96BE
S11312C0E2E10C94250AFC01059061507040011084
S11312D0D8F7809590958E0F9F1F0895FC0161505B
S11312E0704001900110D8F7809590958E0F9F1F44
S11312F008950F931F93CF93DF93182F092FEB01BA
S11313008B8181FD03C08FEF9FEF20C082FF10C04F
S11313104E815F812C813D81421753077CF4E88123
S1131320F9819F012F5F3F4F39832883108306C0C3
S1131330E885F985812F0995892B29F72E813F812D
S11313402F5F3F4F3F832E83812F902FDF91CF91CB
S11313501F910F910895FA01AA27283051F12031E5
S113136081F1E8946F936E7F6E5F7F4F8F4F9F4F35
S1131370AF4FB1E03ED0B4E03CD0670F781F891F77
S11313809A1FA11D680F791F8A1F911DA11D6A0F45
S1131390711D811D911DA11D20D009F468943F91F8
S11313A02AE0269F11243019305D3193DEF6CF01F7
S11313B00895462F4770405D4193B3E00FD0C9F7BD
S11313C0F6CF462F4F70405D4A3318F0495D31FD2A
S11313D04052419302D0A9F7EACFB4E0A69597957D
S11313E0879577956795BA95C9F700976105710553
S11313F008959B01AC010A2E06945795479537959D
S11314002795BA95C9F7620F731F841F951FA01DF6
S113141008952F923F924F925F926F927F928F9294
S11314209F92AF92BF92CF92DF92EF92FF920F936F
S11314301F93CF93DF93CDB7DEB7CA1BDB0B0FB679
S1131440F894DEBF0FBECDBF09942A883988488836
S11314505F846E847D848C849B84AA84B984C884CC
S1131460DF80EE80FD800C811B81AA81B981CE0FC3
S1131470D11D0FB6F894DEBF0FBECDBFED010895A8
S1071480F894FFCF0A
S1131484536572766F0053746570706572005765A6
S11314946C636F6D6520746F20004A6F686E7927E2
S11314A4732050726F6A00486F6D650043435700A0
S11314B430202D202D202D002D202D202D313630AF
S11114C4002D202D202D333539002575000014
S9030000FC
