S00D000050726F6A322E737265634A
S11300000C9434000C9451000C9451000C94510045
S11300100C9451000C9451000C9451000C94510018
S11300200C9451000C9451000C9451000C94510008
S11300300C9451000C9451000C9489030C945100BD
S11300400C9451000C9451000C9451000C945100E8
S11300500C9451000C9451000C9451000C945100D8
S11300600C9451000C94510011241FBECFEFD8E022
S1130070DEBFCDBF11E0A0E0B1E0E0EDF2E102C0EF
S113008005900D92AE34B107D9F721E0AEE4B1E0AA
S113009001C01D92A435B207E1F70E944E030C94EF
S11300A066090C940000ECE7F0E0808180648083B2
S11300B0EAE7F0E0808187688083089585B58360EE
S11300C085BD82E080936E000895ECE7F0E09081B6
S11300D08770987F982B9083EAE7F0E080818064B2
S11300E08083808186FDFDCF809178009091790096
S11300F0089587B18A7F87B987B18A6087B94198A3
S1130100439A8FE19EE40197F1F700C0000080E07C
S11301100E946500089587B1857F87B987B185609E
S113012087B94098429A8FE19EE40197F1F700C0A5
S1130130000081E00E94650008958F929F92AF9223
S1130140BF92CF92DF92EF92FF920F931F93CF93C0
S1130150DF937B016A01E90160E074E09B01281BE5
S1130160390BC9012E153F0528F04217530718F41F
S1130170CA0101C0C701BC016E197F0980E090E08B
S11301800E9495054B015C01B6016E197F0980E060
S113019090E00E9495059B01AC01C501B4010E9449
S11301A001056B017C01B8016C1B7D0B80E090E0C4
S11301B00E9495059B01AC01C701B6010E9423066C
S11301C06B017C01BE0180E090E00E9495059B01DB
S11301D0AC01C701B6010E949D040E946905CB01D0
S11301E0DF91CF911F910F91FF90EF90DF90CF900F
S11301F0BF90AF909F908F900895CF93DF93EC01C1
S11302002296CE010E942204CE010E942704DF918F
S1130210CF910895CF93DF93EC0181E090E089932F
S11302209993CE010E94270460E071E0CE010E9400
S11302302E044AE050E062E0CE010E94360466E0FB
S113024071E0CE010E942E04DF91CF9108950F93A7
S11302501F93CF93DF938C01EC012296CE010E9471
S1130260270444E050E061E0CE010E9436046EE0D1
S113027071E0CE010E942E0444E050E062E0CE0121
S11302800E9436046AE171E0CE010E942E042FEF31
S113029087EA91E6215080409040E1F700C00000D9
S11302A0C8010E940A01DF91CF911F910F91089517
S11302B0CF93DF93EC0182E090E089939993CE0190
S11302C00E9427046DE271E0CE010E942E0447E0F3
S11302D050E062E0CE010E94360467E271E0CE0194
S11302E00E942E044EE050E061E0CE010E943604EC
S11302F06CE271E0CE010E942E04DF91CF9108954B
S1130300CF93DF93EC0184E090E089939993CE013D
S11303100E94270460E071E0CE010E942E044DE0AB
S113032050E061E0CE010E94360467E271E0CE0144
S11303300E942E0441E050E062E0CE010E943604A7
S113034060E371E0CE010E942E0449E050E062E0D7
S1130350CE010E94360468E371E0CE010E942E04AF
S1130360DF91CF910895CF93DF93EC019B0121534B
S113037032402538314030F4CA01815293408539E6
S1130380910558F0655671096D35714018F54B5853
S113039052404B385105F0F411C0CE010E94800147
S11303A0CE0103960E9407042FEF89E698E12150BD
S11303B080409040E1F700C000000CC0CE010E94D4
S11303C058012FEF89E698E1215080409040E1F7F1
S11303D000C00000DF91CF910895EF92FF920F9338
S11303E01F93CF93DF93EC01FB019B012556310949
S11303F02D30314030F4CA01815293408539910542
S113040068F0CF01835891098130934008F042C0CD
S11304104B5852404B385105E8F511C0CE010E94AB
S11304200A018FEF99E628E1815090402040E1F7DE
S113043000C00000CE0103960E94FC032BC000EA1A
S113044010E020E030E046E653E065EA70E0CF01DA
S11304500E949D008C01CE010E9480017E0182E0F9
S1130460E80EF11C49E050E061E0C7010E94360447
S1130470B801C7010E9432049FEF29E688E1915038
S113048020408040E1F700C00000B801CE0103968F
S11304900E94E003DF91CF911F910F91FF90EF90A5
S11304A00895CF93DF93EC0183E090E089939993CF
S11304B0CE010E94270466E071E0CE010E942E0462
S11304C04DE050E061E0CE010E94360467E271E045
S11304D0CE010E942E0441E050E062E0CE010E9471
S11304E0360460E371E0CE010E942E0449E050E03E
S11304F062E0CE010E94360461E471E0CE010E9404
S11305002E04DF91CF9108959B0121523340253968
S1130510310530F49A012152334025393105B8F0C0
S11305209B0125563109233B310530F49A012152B0
S1130530334025393105B8F0615971406330714059
S113054048F54B5852404B38510520F518C00E94CD
S113055051028FEF99E628E1815090402040E1F765
S113056000C0000008950E9451028FEF99E628E12F
S1130570815090402040E1F700C0000008950E949F
S11305800A018FEF99E628E1815090402040E1F77D
S113059000C000000895EF92FF920F931F93CF9332
S11305A0DF938C01EB019B01255631092D3031403D
S11305B030F4CA01815293408539910560F0CE012F
S11305C08358910981309340C0F54B5852404B38C1
S11305D0510598F50DC0C8010E940A018FEF99E6F4
S11305E028E1815090402040E1F700C0000025C080
S11305F0C8010E945102780182E0E80EF11C49E032
S113060050E061E0C7010E94360408E611E020E0F2
S113061030E046E653E065EA70E0CE010E949D00BA
S1130620BC01C7010E9432049FEF29E688E1915082
S113063020408040E1F700C00000DF91CF911F917E
S11306400F91FF90EF9008959B0126503109203BB4
S1130650334018F59A0126503109203B3340E8F421
S113066015C00E94B30108952230310519F40E9487
S1130670840208952330310519F40E94CB020895B1
S11306802430310551F40E94ED010895FC012081CC
S113069031812130310541F7E4CF0895CF93DF93C1
S11306A000D000D000D0CDB7DEB7789480E591E0DB
S11306B00E94CD03CE0106960E94220487E690E0B4
S11306C00E944D040E945E00CE0106960E942704FB
S11306D0CE0101960E94FD00CE0101960E942701E1
S11306E02FEF83EC99E0215080409040E1F700C067
S11306F0000080E591E00E94D4038C0180E591E044
S11307000E94D003A801BC01CE0101960E942403DB
S1130710E7CF1F920F920FB60F9211242F933F939E
S11307204F935F936F937F938F939F93AF93BF93F5
S1130730EF93FF9380914E0190914F01843F91403C
S113074091F40E947900BC0180E591E00E94D803F5
S11307500E948B00BC0180E591E00E94DC031092B2
S11307604F0110924E0180914E0190914F010196DC
S113077090934F0180934E01FF91EF91BF91AF9100
S11307809F918F917F916F915F914F913F912F91A5
S11307900F900FBE0F901F9018950E94530008955C
S11307A0FC01808191810895FC01828193810895E7
S11307B0FC01718360830895FC017383628308954F
S11307C0FC01718360838AE491E0689F9001699FD2
S11307D0300D789F300D1124AFE0BAEE0E948606EA
S11307E0880F892F881F990B919584579F4F909359
S11307F08900809388000895E1E8F0E08081887F93
S11308008083E0E8F0E080818F7080830895219AEE
S1130810E0E8F0E02081226A2083E1E8F0E0208132
S11308202B61208327E833E13093870020938600EF
S1130830FC01118210828CE890E0909389008093EF
S11308408800089587E690E00E944D0408958EEF95
S11308500E94580481E00E9458040895CB010E942C
S113086060040895CB010E946F040895CF93DF9331
S1130870C62FD42F8EEF0E945804C13029F48FE77D
S11308808D0F0E94580406C0C23021F48FEB8D0FE7
S11308900E945804DF91CF9108959093C5008093EE
S11308A0C40088E18093C1008EE08093C200089563
S11308B0E0ECF0E0908195FFFDCF8093C6000895B1
S11308C0CF93DF93EC018881882331F021960E9435
S11308D0580489918111FBCFDF91CF9108950F9333
S11308E01F93CF93DF93CDB7DEB72A970FB6F89453
S11308F0DEBF0FBECDBF9F938F938AE491E09F9399
S11309008F938E010F5F1F4F1F930F930E949506C5
S1130910C8010E9460040F900F900F900F900F90E9
S11309200F902A960FB6F894DEBF0FBECDBFDF91AD
S1130930CF911F910F9108955058BB27AA270ED02D
S113094048C139D130F03ED120F031F49F3F11F449
S11309501EF42EC10EF4E095E7FB24C1E92F4AD121
S113096080F3BA17620773078407950718F071F4C8
S11309709EF562C10EF4E0950B2EBA2FA02D0B014B
S1130980B90190010C01CA01A0011124FF27591BD0
S113099099F0593F50F4503E68F11A16F040A22FD6
S11309A0232F342F4427585FF3CF46953795279547
S11309B0A795F0405395C9F77EF41F16BA0B620B46
S11309C0730B840BBAF09150A1F0FF0FBB1F661F8D
S11309D0771F881FC2F70EC0BA0F621F731F841FD0
S11309E048F4879577956795B795F7959E3F08F0F6
S11309F0B3CF9395880F08F09927EE0F97958795B5
S1130A0008950CD0E6C0DED040F0D5D030F021F40B
S1130A105F3F19F0C7C0511110C1CAC0EBD098F3A1
S1130A209923C9F35523B1F3951B550BBB27AA276B
S1130A3062177307840738F09F5F5F4F220F331FDD
S1130A40441FAA1FA9F333D00E2E3AF0E0E830D0A9
S1130A5091505040E695001CCAF729D0FE2F27D0AC
S1130A60660F771F881FBB1F261737074807AB077A
S1130A70B0E809F0BB0B802DBF01FF2793585F4FEF
S1130A802AF09E3F510568F08DC0D7C05F3FECF35C
S1130A90983EDCF3869577956795B795F7959F5FB4
S1130AA0C9F7880F911D9695879597F90895E1E008
S1130AB0660F771F881FBB1F621773078407BA0767
S1130AC020F0621B730B840BBA0BEE1F88F7E095C2
S1130AD0089598D088F09F5790F0B92F9927B7516F
S1130AE0A0F0D1F0660F771F881F991F1AF0BA95EE
S1130AF0C9F712C0B13081F09FD0B1E008959CC015
S1130B00672F782F8827B85F39F0B93FCCF38695E3
S1130B1077956795B395D9F73EF490958095709540
S1130B2061957F4F8F4F9F4F0895E89409C097FBBD
S1130B303EF490958095709561957F4F8F4F9F4FB0
S1130B409923A9F0F92F96E9BB279395F6958795F4
S1130B5077956795B795F111F8CFFAF4BB0F11F4B7
S1130B6060FF1BC06F5F7F4F8F4F9F4F16C088235E
S1130B7011F096E911C0772321F09EE8872F762F94
S1130B8005C0662371F096E8862F70E060E02AF0D5
S1130B909A95660F771F881FDAF7880F96958795C1
S1130BA097F9089597F99F6780E870E060E00895E9
S1130BB09FEF80EC089500240A9416161706180671
S1130BC00906089500240A9412161306140605064D
S1130BD00895092E0394000C11F4882352F0BB0FDE
S1130BE040F4BF2B11F460FF04C06F5F7F4F8F4F41
S1130BF09F4F089557FD9058440F551F59F05F3F7C
S1130C0071F04795880F97FB991F61F09F3F79F02A
S1130C1087950895121613061406551FF2CF4695AC
S1130C20F1DF08C0161617061806991FF1CF86952E
S1130C307105610508940895E894BB276627772712
S1130C40CB0197F908950BD0C4CFB5DF28F0BADFF4
S1130C5018F0952309F0A6CFABCF1124EECFCADF4D
S1130C60A0F3959FD1F3950F50E0551F629FF001BB
S1130C70729FBB27F00DB11D639FAA27F00DB11D14
S1130C80AA1F649F6627B00DA11D661F829F22279D
S1130C90B00DA11D621F739FB00DA11D621F839F24
S1130CA0A00D611D221F749F3327A00D611D231FFA
S1130CB0849F600D211D822F762F6A2F11249F5748
S1130CC050408AF0E1F088234AF0EE0FFF1FBB1F6B
S1130CD0661F771F881F91505040A9F79E3F51050A
S1130CE070F060CFAACF5F3FECF3983EDCF38695BB
S1130CF077956795B795F795E7959F5FC1F7FE2BB5
S1130D00880F911D9695879597F90895A29FB00134
S1130D10B39FC001A39F700D811D1124911DB29F2B
S1130D20700D811D1124911D0895AEE0B0E0EBE932
S1130D30F6E00C943D090D891E8986E08C831A83A4
S1130D4009838FEF9FE79E838D83AE01475E5F4FDC
S1130D506F89788DCE0101960E94B706EF81F885E0
S1130D60E00FF11F10822E96E4E00C945909ACE0D8
S1130D70B0E0EDEBF6E00C942F097C016B018A01E5
S1130D80FC0117821682838181FFBDC1CE010196C9
S1130D904C01F7019381F60193FD859193FF8191B5
S1130DA06F01882309F4ABC1853239F493FD859131
S1130DB093FF81916F01853229F4B70190E00E947D
S1130DC09F08E7CF512C312C20E02032A0F48B3245
S1130DD069F030F4803259F0833269F420612CC018
S1130DE08D3239F0803339F4216026C022602460CA
S1130DF023C0286021C027FD27C030ED380F3A30CA
S1130E0078F426FF06C0FAE05F9E300D1124532EBD
S1130E1013C08AE0389E300D1124332E20620CC09A
S1130E208E3221F426FD6BC1206406C08C3611F489
S1130E30206802C0883641F4F60193FD859193FF42
S1130E4081916F018111C1CF982F9F7D955493306B
S1130E5028F40C5F1F4FFFE3F9830DC0833631F094
S1130E60833771F0833509F05BC022C0F8018081BB
S1130E7089830E5F1F4F44244394512C540115C0A1
S1130E803801F2E06F0E711CF801A080B18026FFDA
S1130E9003C0652D70E002C06FEF7FEFC5012C87A2
S1130EA00E9494082C0183012C852F77222E17C0D1
S1130EB03801F2E06F0E711CF801A080B18026FFAA
S1130EC003C0652D70E002C06FEF7FEFC5012C8772
S1130ED00E9489082C012C852068222E830123FC82
S1130EE01BC0832D90E048165906B0F4B70180E288
S1130EF090E00E949F083A94F4CFF50127FC859175
S1130F0027FE81915F01B70190E00E949F08311094
S1130F103A94F1E04F1A51084114510471F7E5C0B5
S1130F20843611F0893639F5F80127FF07C060814E
S1130F307181828193810C5F1F4F08C06081718130
S1130F40882777FD8095982F0E5F1F4F2F76B22E3E
S1130F5097FF09C090958095709561957F4F8F4F4D
S1130F609F4F2068B22E2AE030E0A4010E94D108ED
S1130F70A82EA81844C0853729F42F7EB22E2AE063
S1130F8030E025C0F22FF97FBF2E8F36C1F018F460
S1130F90883579F0B4C0803719F0883721F0AFC0B4
S1130FA02F2F2061B22EB4FE0DC08B2D8460B82E7D
S1130FB009C024FF0AC09F2F9660B92E06C028E0FE
S1130FC030E005C020E130E002C020E132E0F80169
S1130FD0B7FE07C060817181828193810C5F1F4FCE
S1130FE006C06081718180E090E00E5F1F4FA40114
S1130FF00E94D108A82EA818FB2DFF77BF2EB6FE9D
S11310000BC02B2D2E7FA51450F4B4FE0AC0B2FCE5
S113101008C02B2D2E7E05C07A2C2B2D03C07A2CD4
S113102001C0752C24FF0DC0FE01EA0DF11D808165
S1131030803311F4297E09C022FF06C0739473948F
S113104004C0822F867809F0739423FD13C020FF17
S113105006C05A2C731418F4530C5718732C7314B9
S113106068F4B70180E290E02C870E949F08739493
S11310702C85F5CF731410F4371801C0312C24FFDC
S113108012C0B70180E390E02C870E949F082C8552
S113109022FF17C021FF03C088E590E002C088E763
S11310A090E0B7010CC0822F867859F021FD02C070
S11310B080E201C08BE227FD8DE2B70190E00E943F
S11310C09F08A51438F4B70180E390E00E949F08BC
S11310D05A94F7CFAA94F401EA0DF11D8081B70167
S11310E090E00E949F08A110F5CF332009F451CE5F
S11310F0B70180E290E00E949F083A94F6CFF7018E
S11311008681978102C08FEF9FEF2C96E2E10C94C9
S11311104B09FC010590615070400110D8F780958F
S113112090958E0F9F1F0895FC01615070400190AF
S11311300110D8F7809590958E0F9F1F08950F93F7
S11311401F93CF93DF93182F092FEB018B8181FD20
S113115003C08FEF9FEF20C082FF10C04E815F81DC
S11311602C813D81421753077CF4E881F9819F016A
S11311702F5F3F4F39832883108306C0E885F985A4
S1131180812F0995892B29F72E813F812F5F3F4FAE
S11311903F832E83812F902FDF91CF911F910F9149
S11311A00895FA01AA27283051F1203181F1E894F9
S11311B06F936E7F6E5F7F4F8F4F9F4FAF4FB1E046
S11311C03ED0B4E03CD0670F781F891F9A1FA11D41
S11311D0680F791F8A1F911DA11D6A0F711D811D42
S11311E0911DA11D20D009F468943F912AE0269F07
S11311F011243019305D3193DEF6CF010895462F66
S11312004770405D4193B3E00FD0C9F7F6CF462F46
S11312104F70405D4A3318F0495D31FD40524193AF
S113122002D0A9F7EACFB4E0A6959795879577956C
S11312306795BA95C9F700976105710508959B01F3
S1131240AC010A2E06945795479537952795BA957C
S1131250C9F7620F731F841F951FA01D08952F9255
S11312603F924F925F926F927F928F929F92AF9232
S1131270BF92CF92DF92EF92FF920F931F93CF937F
S1131280DF93CDB7DEB7CA1BDB0B0FB6F894DEBF16
S11312900FBECDBF09942A88398848885F846E843C
S11312A07D848C849B84AA84B984C884DF80EE8086
S11312B0FD800C811B81AA81B981CE0FD11D0FB68F
S11312C0F894DEBF0FBECDBFED010895F894FFCFB3
S11312D0536572766F00537465707065720057655C
S11312E06C636F6D6520746F20004A6F686E792798
S11312F0732050726F6A00486F6D65004343570056
S113130030202D202D202D002D202D202D31363064
S1111310002D202D202D3336300025750000D1
S9030000FC
