S00D000050726F6A322E737265634A
S11300000C9434000C9451000C9451000C94510045
S11300100C9451000C9451000C9451000C94510018
S11300200C9451000C9451000C9451000C94510008
S11300300C9451000C9451000C9449020C945100FE
S11300400C9451000C9451000C9451000C945100E8
S11300500C9451000C9451000C9451000C945100D8
S11300600C9451000C94510011241FBECFEFD8E022
S1130070DEBFCDBF11E0A0E0B1E0E8E8F5E002C0EA
S113008005900D92AA34B107D9F721E0AAE4B1E0B2
S113009001C01D92A035B207E1F70E940F020C9433
S11300A0C2020C94000087E690E00E94A00208952A
S11300B08EEF0E94AB0281E00E94AB020895CB0157
S11300C00E94B3020895CF93DF93C62FD42F8EEFEF
S11300D00E94AB02C13029F48FE78D0F0E94AB025E
S11300E006C0C23021F48FEB8D0F0E94AB02DF916A
S11300F0CF910895ECE7F0E0808180648083EAE7A3
S1130100F0E0808187688083089585B5836085BD2C
S113011082E080936E000895ECE7F0E090818770B0
S1130120987F982B9083EAE7F0E080818064808355
S1130130808186FDFDCF80917800909179000895AB
S113014087B18A7F87B987B18A6087B94198439A12
S11301508FE19EE40197F1F700C0000080E00E9467
S11301608C00089587B1857F87B987B1856087B989
S11301704098429A8FE19EE40197F1F700C0000095
S113018081E00E948C000895CF93DF93EC012296C6
S1130190CE010E945300CE010E945800DF91CF91FE
S11301A00895CF93DF93EC0181E090E089939993D4
S11301B0CE010E94580060E071E0CE010E945F0011
S11301C04AE050E062E0CE010E94630066E071E024
S11301D0CE010E945F00DF91CF9108950F931F938A
S11301E0CF93DF938C01EC012296CE010E9458003C
S11301F044E050E061E0CE010E9463006EE071E0F3
S1130200CE010E945F0044E050E062E0CE010E9413
S113021063006AE171E0CE010E945F002FEF87EA7C
S113022091E6215080409040E1F700C00000C801F1
S11302300E94D100DF91CF911F910F9108959B01EE
S1130240215233402539310530F49A01215233408B
S113025025393105C0F09B0125563109233B310571
S113026030F49A01215233402539310560F0615947
S113027071406330714038F441525340453951055F
S113028010F40E94D10008959B012F543240273668
S1130290314030F49A01215233402539310560F060
S11302A0655671096D30714038F4415253404539F7
S11302B0510510F40E94D1000895CF93DF93EC010F
S11302C082E090E089939993CE010E9458006DE2F8
S11302D071E0CE010E945F0049E050E061E0CE0190
S11302E00E94630067E271E0CE010E945F004EE06D
S11302F050E061E0CE010E9463006CE271E0CE0147
S11303000E945F0041E050E062E0CE010E94630081
S113031060E371E0CE010E945F0049E050E062E0DA
S1130320CE010E94630068E371E0CE010E945F0089
S1130330DF91CF910895CF93DF93EC0183E090E0B8
S113034089939993CE010E94580060E071E0CE0138
S11303500E945F004DE050E061E0CE010E94630026
S113036067E271E0CE010E945F0041E050E062E08C
S1130370CE010E94630060E371E0CE010E945F0041
S113038049E050E062E0CE010E94630061E471E064
S1130390CE010E945F00DF91CF9108959B0121530C
S11303A032402538314030F49A0121523340253906
S11303B0310558F0655671096D35714058F44D5B3F
S11303C052404935510530F403C00E949B01089501
S11303D00E945D0108959B0126503109203B334062
S11303E0E8F49A0126503109203B3340B8F40FC099
S11303F00E94CE0108952230310519F40E941F0194
S113040008952330310551F40E9444010895FC01FC
S1130410208131812130310571F7EACF0895CF93DE
S1130420DF9300D000D0CDB7DEB778948CE491E0B0
S11304300E948D02CE0104960E94530087E690E04C
S11304400E94A0020E948500CE0104960E945800DA
S1130450CE0101960E94C400CE0101960E94EE00D6
S11304602FEF83EC99E0215080409040E1F700C0E9
S113047000008CE491E00E9494028C018CE491E0F1
S11304800E949002A801BC01CE0101960E94EB01DA
S1130490E7CF1F920F920FB60F9211242F933F9321
S11304A04F935F936F937F938F939F93AF93BF9378
S11304B0EF93FF9380914A0190914B01843F9140C7
S11304C091F40E94A000BC018CE491E00E94980287
S11304D00E94B200BC018CE491E00E949C02109244
S11304E04B0110924A0180914A0190914B0101966F
S11304F090934B0180934A01FF91EF91BF91AF918B
S11305009F918F917F916F915F914F913F912F9127
S11305100F900FBE0F901F9018950E947A000895B7
S1130520FC01808191810895FC0182819381089569
S1130530FC01718360830895FC01738362830895D1
S11305409093C5008093C40088E18093C1008EE03D
S11305508093C2000895E0ECF0E0908195FFFDCF18
S11305608093C6000895CF93DF93EC01888188239C
S113057031F021960E94AB0289918111FBCFDF916A
S10B0580CF910895F894FFCF18
S1130588536572766F0053746570706572005765B1
S11305986C636F6D6520746F20004A6F686E7927ED
S11305A8732050726F6A00486F6D650043435700AB
S11305B830202D202D202D002D202D202D333630B8
S10D05C8002D202D202D31363000C7
S9030000FC
