S00D000050726F6A322E737265634A
S11300000C9434000C9451000C9451000C94510045
S11300100C9451000C9451000C9451000C94510018
S11300200C9451000C9451000C9451000C94B000A9
S11300300C9451000C9451000C9451000C945100F8
S11300400C9451000C9451000C9451000C945100E8
S11300500C9451000C9451000C9451000C945100D8
S11300600C9451000C94510011241FBECFEFD8E022
S1130070DEBFCDBF11E0A0E0B1E0E6E7F2E002C0F0
S113008005900D92A030B107D9F721E0A0E0B1E0CE
S113009001C01D92A430B207E1F70E948B000C94BA
S11300A039010C940000ECE7F0E090818770987FB0
S11300B0982B9083EAE7F0E08081806480838081DC
S11300C086FDFDCF8091780090917900089587B1E5
S11300D08A7F87B987B18A6087B94198439A8FE14B
S11300E09EE40197F1F700C0000080E00E945300F5
S11300F0089587B1857F87B987B1856087B94098AE
S1130100429A8FE19EE40197F1F700C0000081E07C
S11301100E9453000895CF93DF9300D01F92CDB770
S1130120DEB77894CE0101960E94250142E050E0AA
S113013068E671E0CE0101960E94E0002FEF89E6A7
S113014098E1215080409040E1F700C0000043E076
S113015050E066E970E0CE0101960E940301E6CF0B
S11301601F920F920FB60F9211242F933F934F9328
S11301705F936F937F938F939F93AF93BF93EF930B
S1130180FF930E946700BC0180E091E00E9431016E
S11301900E947900BC0180E091E00E943501FF914A
S11301A0EF91BF91AF919F918F917F916F915F91EB
S11301B04F913F912F910F900FBE0F901F90189564
S11301C0FC0181E082835A9816161706ACF420E0ED
S11301D030E08FE19EE40197F1F700C000005C9AE3
S11301E08FE19EE40197F1F700C000005C982F5F57
S11301F03F4F2617370769F780819181680F791F70
S1130200718360830895FC0112825A9A16161706A8
S1130210ACF420E030E08FE19EE40197F1F700C0F8
S113022000005C9A8FE19EE40197F1F700C00000A2
S11302305C982F5F3F4F2617370769F780819181BC
S1130240861B970B918380830895FC011182108291
S113025021E022838AB184618AB98BB18B7E8BB908
S11302600895FC01718360830895FC0173836283A4
S10902700895F894FFCF8D
S9030000FC
