:100000000C9434000C9449000C9449000C94490061
:100010000C9449000C9449000C9449000C9449003C
:100020000C9449000C9449000C9449000C9449002C
:100030000C9449000C9449000C9449000C9449001C
:100040000C9449000C9449000C9449000C9449000C
:100050000C9449000C9449000C9449000C944900FC
:100060000C9449000C94490011241FBECFEFD8E036
:10007000DEBFCDBF11E0A0E0B1E0E4EAF1E002C0F4
:1000800005900D92A030B107D9F70E944B000C9457
:10009000D0000C940000CF93DF9300D0CDB7DEB733
:1000A000CE0101960E94B50000E010E00F2EF0EAAC
:1000B000EF2EF02DF12C10C0B801CE0101960E9458
:1000C000A6002FEF80E792E0215080409040E1F7BA
:1000D00000C000000B5F1F4F013A11056CF30E2D9D
:1000E0001F2DB801CE0101960E94A6002FEF80E7D8
:1000F00092E0215080409040E1F700C000000550A0
:1001000011090B3F2FEF120761F760E070E0CE019D
:1001100001960E94A6008FEF93ED20E3815090405E
:100120002040E1F700C000006E2D7F2DCE0101962A
:100130000E94A6008FEF93ED20E381509040204075
:10014000E1F700C0000000E010E0C6CFFC017183C1
:100150006083CB01880F991F680F791F6A567F4F04
:1001600070938900609388000895219AE0E8F0E098
:100170002081226A2083E1E8F0E020812B61208346
:1001800027E833E13093870020938600FC01118239
:10019000108286E990E0909389008093880008950A
:0401A000F894FFCF01
:00000001FF
